:02000004080AE8
:1000000000000A080C2D0A08000006000600050181
:080010000402E80500000000F5
:0400180074280A0836
:10001C0009480A4908B5884205D0094A824202D0EB
:10002C00121A02F09FFB0748074A0021121A02F02D
:10003C00A4FB064808BD00BF00000020242C0A08C1
:10004C00C0000020C0000020000700200007002096
:10005C0070B501F055FB074B074C1E46E41AA4087B
:10006C000025A54204D056F8253098470135F8E70D
:10007C0070BD00BFE02B0A08142C0A0800F030B841
:10008C0008B500F069F8BDE8084001F0FBBA00F0D3
:10009C00D7BE00F0D5BE00F0DBBE00F0D9BE0078B4
:1000AC00B0FA80F040097047012303707047704725
:1000BC0038B5084D084C1F22284602F0C2FB0749F0
:1000CC00204602F08BFB29462046BDE8384002F062
:1000DC0085BB00BFC5000020E50000203C000020CF
:1000EC001FB500242246019400940123154916489B
:1000FC0000F096FE154B22461B7813498DF8003004
:10010C0002A83C2301F06AFC039C7CB16368013BB0
:10011C0063605BB9236820469B689847A368013BE2
:10012C00A3601BB923682046DB689847084B012164
:10013C00188802F007F9074B0321188802F002F91E
:10014C0004B010BDBD000A0888280A08C4000020AD
:10015C0038000020540000202DE9F041244800F024
:10016C00A8F9244C70B92449214800F087FA48B901
:10017C002088012102F0F7F8BDE8F0414FF47A70C5
:10018C0001F01EBA0021208802F0EDF800F09AFC74
:10019C001A4B0746188802F0FFF8194B0128154E28
:1001AC00014618601C46174D1BD12B68012B18D02B
:1001BC00DFF85C80D8F80030FB1AB3F57A7F10D3E7
:1001CC00308802F0D0F81049104A094800F0D5FAEE
:1001DC00642001F0F5F900213088C8F8007002F0B5
:1001EC00C2F8236802482B60BDE8F04100F00CBB5C
:1001FC0028010020380000209D280A085400002007
:10020C005000002034000020E500002000000020F9
:10021C002401002010B50A4B0A4C00221A7000F081
:10022C0011FC40F25B7208492046084B00F05AF86A
:10023C002046BDE81040064A064902F019B900BF35
:10024C00C400002028010020A6280A08BB000A08C8
:10025C00C0000020210A0A0838B50B4B84690546FA
:10026C0003607CB16368013B63605BB92368204623
:10027C009B689847A368013BA3601BB92368204681
:10028C00DB689847284638BDEC280A0810B50446A8
:10029C00FFF7E2FF20461C2102F0F8F8204610BDC3
:1002AC0038B51D46059B044603630023436302B126
:1002BC00826419B104F1380001F0F4F8049BE06990
:1002CC002365069BA4F84C50FF2BB8BFFF23A4F862
:1002DC00543008B1FFF7E1FEB4F85400FFF7D9FE33
:1002EC00E06138BD2DE9FF410446174698460E469D
:1002FC00002501F025F8E5610A4904F1380001F008
:10030C00BEF8FF2302930F2300932046A564CDF87B
:10031C0004803B462A463146FFF7C2FF204604B014
:10032C00BDE8F081F5290A0810B50446204600F016
:10033C009BFE0028FAD0204600F04BFEC0B210BD48
:10034C002DE9F0470546C4698A46FFF7EDFF4FF0EB
:10035C00010846462070EB69002793F8009009F0DD
:10036C00F0092846FFF7E0FFEB69741C985500F084
:10037C007F0303FB08770306A4B2BFB24FEAC81889
:10038C0001D52646EDE7631EB9F1300F8AF800302F
:10039C0013D12846D5F81C80FFF7C6FF08F80400D7
:1003AC002846D5F81C80FFF7BFFFF41C0236B6B206
:1003BC00A4B208F80600022300E000231B1B9EB227
:1003CC00A3199BB29F420BD92846FFF7ADFFB5F896
:1003DC005430A34284BFEB6918550134A4B2EFE743
:1003EC00B5F85400A0422CBF20460020BDE8F08791
:1003FC00F7B507468E461E461D46002405F07F03C2
:10040C0002A9ED09214418BF43F08003013401F81F
:10041C00043CE4B2002DF1D1C4F10403D11802F86C
:10042C0003E0A54206DA01A82B1B285C1344587183
:10043C000135F6E7721C2244384600F072FD054681
:10044C0000F040FB013478623444A8B2231A5842BD
:10045C00584103B0F0BD10B50446C369E0221A70D0
:10046C00C36900225A70C169022200F05AFD20466D
:10047C0000F036FE00F026FB6062A06210BDF0B505
:10048C000D4602339BB26C1A15F8016BA4B23EB147
:10049C00B0F854709F4203D95C1CD654A3B2F2E757
:1004AC00191B0A44211202F8021C02F8014C1846CE
:1004BC00F0BD38B5054600F0D4FE002814BF012469
:1004CC00002402D1284600F00BFE204638BD000067
:1004DC002DE9F04387B00446894617461E46DDF8E1
:1004EC003880FFF7E6FF0546002840F0BD80A16C80
:1004FC0039B90346B4F84C20A16B204600F042FFFA
:10050C0009E0684601F05CFC2B46B4F84C206946C7
:10051C00204600F0FFFD002800F0A2800123238478
:10052C009DF84C30042B15D1524B18689A880090CA
:10053C00ADF804209B79E26900988DF80630C2F87A
:10054C000500531DBDF804109DF8062099809A7182
:10055C000C2312E06A46484BD4F81CC01868596842
:10056C001B7A03C213706B4603CBCCF80500CCF896
:10057C00091013788CF80D300E23B8F1000F0AD047
:10058C009DF840209DF83C10520142F0060242EAD0
:10059C00C102D2B200E002229DF8481009B902F063
:1005AC00FD022FB116B942F0800201E042F0C00208
:1005BC00E169581CCA54226DE16912120A54E169AE
:1005CC00206D9A1C88540333E26949462046FFF794
:1005DC0056FFB8F1000F0BD00346E26941462046A6
:1005EC00FFF74DFFE269034611992046FFF747FFDD
:1005FC0067B10346E26939462046FFF740FF2EB14A
:10060C000346E26931462046FFF739FF431F9BB290
:10061C00E26910212046FFF7EBFE00F053FA4FF48D
:10062C007A766062A062204600F01EFD40B900F0B0
:10063C0049FAA36AC01A236D73439842F3D90FE0A9
:10064C0069462046FFF77CFE042809D1E369DE7871
:10065C0036B900F037FA0125A06284F82C6004E06A
:10066C00204600F03DFD00E00025284607B0BDE81F
:10067C00F08300BFB5280A08BC280A087FB50423FC
:10068C000593012304930023039302930193009396
:10069C001A46FFF71DFF07B05DF804FB2DE9F14F7B
:1006AC000D9E04468B4691469A469DF828809DF8EF
:1006BC002C509DF83070FFF7FCFE00284BD0B4F89E
:1006CC0054200021E06902F058F80523E2695946EC
:1006DC002046FFF7D4FE6B1E012B12D8238CE26947
:1006EC0001339BB223841B121354411CE369228CEB
:1006FC0089B2023080B25A541EB1238C5A1C228407
:10070C003380002291B283188A459BB209D9B4F880
:10071C00546001329E4204D919F80160E169CE544B
:10072C00F0E7B8F1000F0CBF302131210FB141F0CF
:10073C000801022D02D141F0040103E0012D08BF94
:10074C0041F002012046053BE2699BB201B0BDE8D5
:10075C00F04FFFF74DBE01B0BDE8F08F1FB5089C00
:10076C000394002402949DF81C4001949DF81840B9
:10077C000094FFF793FF04B010BD7FB505461046FB
:10078C000E46144602F055F8002302930193009391
:10079C002246034631462846FFF7E0FF04B070BD01
:1007AC0038B504460D46FFF784FE90B1E36962222A
:1007BC001A70E36902225A70E3692A129A70E3698B
:1007CC000422DD70E169204600F0ABFB003018BF5D
:1007DC00012038BD38B504460D46FFF76AFE90B1CE
:1007EC00E36972221A70E36902225A70E3692A12D1
:1007FC009A70E3690422DD70E169204600F091FBF8
:10080C00003018BF012038BD2DE9F04F83B000AF88
:10081C000446FFF74EFE8146002800F0F68000F0FB
:10082C0051F9226D4FF47A735343A26A0546821A2A
:10083C009A4203D8626A821A934217D294F82C30E7
:10084C002BB1204600F04CFC4FF00009DDE0E269D2
:10085C00C0211170E26920465370E169022200F058
:10086C0060FB01236562A56284F82C30204600F001
:10087C00FBFB002800F0C980F91D2046FFF760FD46
:10088C000246002800F0C180E369A562187800F0E8
:10089C00F00130297DD1D4F830B0BBF1000F00F05D
:1008AC00B48097F807C0EA4603EB0C00817890F807
:1008BC0001E001EB0E2E1FFA8EFE0EF1080121F065
:1008CC000701ADEB010D684600218EB2B64506D985
:1008DC000CEB01061E44F67846540131F5E7002175
:1008EC0000F80E101E780CF1030106F00606022E1D
:1008FC00CCEB02021ED1714413F8018019444978E3
:10090C00CEEB020201EB08280CF105017144053A0B
:10091C001944D847E36940221A70E3691FFA88F832
:10092C005E70E3694FEA28229A70E369042283F827
:10093C00038020E0042E24D1714413F80180194463
:10094C004978CEEB020201EB08280CF10501714449
:10095C00053A1944D847E36950221A70E369022218
:10096C005A70E3691FFA88F84FEA28229A703246C7
:10097C00E36983F80380E169204600F0D2FA6562EE
:10098C0005E0033A7144CEEB02021944D847D54630
:10099C003BE0502908D19978DB78204603EB012104
:1009AC0089B2FFF7FDFE30E040290CD0602908D158
:1009BC009978DB78204603EB012189B2FFF70AFF17
:1009CC0023E070290DD1616BF9B1042A1DD110F00F
:1009DC00060F1AD19878DB7803EB002080B2884799
:1009EC0013E0902911D0C0290AD1D0221A70E369E2
:1009FC0000225A70E1690222204600F092FA04E0CB
:100A0C00D02904BF002384F82C3048460C37BD464F
:100A1C00BDE8F08F10B50446FFF74BFD10B1204632
:100A2C00FFF719FDE06908B1FFF737FB04F1380057
:100A3C0000F0DEFC2046FFF70FFC204610BD00F056
:100A4C0001B8000008B5024B1B681B68019308BD78
:100A5C00B001060808B5024B1B689B68019308BDE2
:100A6C00B001060808B5024B1B68DB68019308BD92
:100A7C00B001060808B5024B1B681B69019308BD41
:100A8C00B001060808B5024B1B685B69019308BDF1
:100A9C00B001060808B5024B1B68DB69019308BD61
:100AAC00B401060808B5024B1B681B6A019308BD0C
:100ABC00B401060808B5024B1B685B68019308BDBE
:100ACC009C01060808B5024B1B685B69019308BDC5
:100ADC009C01060808B5024B1B685B6C019308BDB2
:100AEC00D001060808B5024B1B689B6C019308BD2E
:100AFC00D001060808B5024B1B689B69019308BD21
:100B0C00C401060808B5024B1B685B6A019308BD5B
:100B1C00C401060808B5024B1B689B6A019308BD0B
:100B2C00C401060808B5024B1B68DB6A019308BDBB
:100B3C00C401060808B5024B1B681B6B019308BD6A
:100B4C00C401060808B5024B1B685B6B019308BD1A
:100B5C00C401060808B5024B1B689B6B019308BDCA
:100B6C00C401060808B5024B1B681B6C019308BD39
:100B7C00C401060808B5024B1B681B6E019308BD27
:100B8C00AC01060808B5024B1B685B6E019308BDEF
:100B9C00AC01060808B5024B1B689B6E019308BD9F
:100BAC00AC01060808B5024B1B68DB6E019308BD4F
:100BBC00AC01060808B5024B1B681B6F019308BDFE
:100BCC00AC01060808B5024B1B685B6F019308BDAE
:100BDC00AC01060808B5034B1B68D3F880300193B1
:100BEC0008BD0000AC01060808B5024B1B681B6869
:100BFC00019308BDBC01060808B5024B1B685B6875
:100C0C00019308BDBC01060808B5024B1B689B6824
:100C1C00019308BDBC01060808B5024B1B68DB68D4
:100C2C00019308BDBC01060808B5024B1B681B6983
:100C3C00019308BDBC01060808B5024B1B681B6A72
:100C4C00019308BDBC01060808B5024B1B681B6B61
:100C5C00019308BDBC01060808B5024B1B685B6C10
:100C6C00019308BDBC01060808B5024B1B681B6844
:100C7C00019308BDD801060808B5024B1B681B6917
:100C8C00019308BDD801060808B5024B1B685B69C7
:100C9C00019308BDD801060808B5024B1B689B6977
:100CAC00019308BDD801060808B5024B1B68DB6927
:100CBC00019308BDD801060808B5024B1B681B6AD6
:100CCC00019308BDD801060808B5024B1B685B6C84
:100CDC00019308BDC001060808B5024B1B689B6C4C
:100CEC00019308BDC001060808B5024B1B681B6DBB
:100CFC00019308BDA801020808B5024B1B685B688C
:100D0C00019308BDA401060808B5024B1B685B697A
:100D1C00019308BDA401060808B5024B1B68DB6CE7
:100D2C00019308BDA401060808B5024B1B685B6D56
:100D3C00019308BDA401060808B5034B1B68D3F842
:100D4C009030019308BD0000A401060808B5034BC0
:100D5C001B68D3F89C30019308BD0000A401060861
:100D6C0008B5024B1B685B68019308BDC8010608F7
:100D7C0008B5024B1B689B68019308BDC8010608A7
:100D8C0008B5024B1B68DB68019308BDC801060857
:100D9C0008B5024B1B681B69019308BDC801060806
:100DAC0008B5024B1B685B69019308BDC8010608B6
:100DBC0008B5024B1B689B69019308BDC801060866
:100DCC0008B5024B1B68DB69019308BDC801060816
:100DDC0008B5024B1B681B6A019308BDC8010608C5
:100DEC0008B5024B1B681B6B019308BDC8010608B4
:100DFC0008B5024B1B685B6B019308BDC801060864
:100E0C0008B5024B1B685B69019308BDCC01060851
:100E1C0008B5024B1B681B6A019308BDCC01060880
:100E2C0008B5024B1B685B6A019308BDCC01060830
:100E3C0008B5024B1B68DB6B019308BDCC0106089F
:100E4C0008B5024B1B681B68019308BDA00106087E
:100E5C0008B5024B1B685B68019308BDA00106082E
:100E6C0008B5024B1B689B68019308BDA0010608DE
:100E7C0008B5024B1B68DB6A019308BDA00106088C
:100E8C0008B5024B1B681B6B019308BDA00106083B
:100E9C0070B504460E46002540F8085FFFF71AFEB1
:100EAC0030462670FFF7F6FD6560204670BD007871
:100EBC00FFF7F8BD10B50446006818B1FFF7C8FF7E
:100ECC000023236010BD10B50446FFF7F3FF204646
:100EDC0010BD00004FF6FF7310B5084C00202060C9
:100EEC00A080A07120816381FFF706FF2046BDE83A
:100EFC001040034A034901F0BBBA00BF8001002037
:100F0C00C0000020D30E0A0837B502AC036804F801
:100F1C00011DDD6B012247F230532146A84703B077
:100F2C0030BD10B40368DC6B47F23053A44610BCE0
:100F3C00604737B502AC036804F8011DDD6B214630
:100F4C0013460122A84703B030BD704770470020FC
:100F5C00704710B50446142101F098FA204610BDD4
:100F6C00FFF799B810B5044603689B689847A368C7
:100F7C00013BA3602BB923682046BDE81040DB6819
:100F8C00184710BD70B5044606464D69044B8C35A8
:100F9C0044F8043B0FCD0FC42B683046237070BD52
:100FAC007C2A0A0810B543690446B3F88620B3F8C6
:100FBC0084309A4205D06269B2F8843013441879AF
:100FCC0010BD03681B6998470028F4D14FF0FF301F
:100FDC0010BD10B543690446B3F88620B3F88430CD
:100FEC009A4208D06269B2F88430591CA2F8841075
:100FFC001344187910BD03681B6998470028F1D178
:10100C004FF0FF3010BDF8B543691746B3F8862092
:10101C00B3F8843005469A420E4606D103681B6924
:10102C00984710B94FF0FF3414E069693046B1F8B5
:10103C008430B1F886401944E41ABC4228BF3C46BF
:10104C000431224601F08EFB6A69B2F884302344E5
:10105C00A2F884302046F8BD42690023A2F88430FF
:10106C004269A2F88630704738B542690446B2F836
:10107C0086301BB1B2F884209A420CD0206901F062
:10108C0005F90368DB68984718B363691868FFF7BC
:10109C00B3FD18B91DE0FFF7DFFFEFE76069B0F8AB
:1010AC0086107F2915D8051DC1F180020023294423
:1010BC000068FFF7B9FD00280BDD6369B3F88620E3
:1010CC000AB9A3F884206269B2F886301844A2F8F1
:1010DC0086006269B2F88630B2F88400181A38BDFE
:1010EC0038B5436904461868FFF786FD18B1636983
:1010FC001868FFF7A1FD6569FFF7A6FD2860606918
:10110C00112200218C3001F038FB2046BDE838401C
:10111C00FFF7A2BF2DE9F0411F4603688AB0DB6AD6
:10112C0006460C4615469847384601F0AFF803685A
:10113C00DB689847002856D000972B4606220121E1
:10114C000220D6F81480FFF75FFD2023C8F80000BA
:10115C0000270293736903971B6801200193234BAB
:10116C0002AA009322493B46FFF7BEFD736918683B
:10117C00FFF742FD002836D03046FFF76DFF022303
:10118C00ADF808302B0A8DF80A30E3794FF4FA5099
:10119C008DF80C30A3798DF80B508DF80D306379E8
:1011AC008DF80E3014F8043F8DF80F30FFF78CFDDE
:1011BC0073690546102202A91868FFF72DFD8046B9
:1011CC002846FFF781FD0FCC75698C350FC5236858
:1011DC002B70B8F1000F05D033683046DB6A9847A6
:1011EC00384600E001200AB0BDE8F08137290A0832
:1011FC0030290A0810B5436904461868FFF7FCFC4F
:10120C0008B9002010BD206901F040F80368DB68C4
:10121C0098470028F5D063691868FFF7E5FCB0FA29
:10122C0080F0400910BD2DE9F341002545600446CE
:10123C000E4617469846FFF7DDFF60B160690195D1
:10124C00CDF800802B463A4631460068FFF704FD86
:10125C00002803DA01E04FF0FF30606002B0BDE817
:10126C00F08138B50446FFF7C5FF00BB6369B3F8DE
:10127C008610B3F88420914219D11868FFF7BCFC92
:10128C0028B163691868FFF7AFFC012801D000256D
:10129C000EE0236820461B699847002814BF0125DF
:1012AC00002505D123682046DB6A984700E001251C
:1012BC00284638BD08B5FFF79DFF003018BF012048
:1012CC0008BD10B5044600230160A0F88430A0F8D6
:1012DC008630883000F026FD204610BD4FF47A721F
:1012EC0070B58260144A00234360026043618361DD
:1012FC000446A0200E46FEF7CAFE054610B1314644
:10130C00FFF7DFFF1420FEF7C2FE034628B10122CF
:10131C0042608260094A05610260A0696561A3614F
:10132C0028B14368013B43600BB9FFF71BFE204615
:10133C00FFF792FE204670BDEC280A08D0280A0858
:10134C0010B50446FFF780FC01462046FFF7C6FFA8
:10135C00204610BD10B504460068FFF74DFC10B1D7
:10136C002068FFF769FC204610BD10B504692046C3
:10137C00FFF7F0FF24B12046BDE81040FEF78BBE0E
:10138C0010BD00002DE9F0431F4603688FB0DB6AE7
:10139C0006460D4690469847134800F02AFF00B3C6
:1013AC0002A800F0BFFC284601F043FA002481B2E9
:1013BC0000943B4603AA2846FFF78EFC80B933689D
:1013CC0009ADD3F82090094B03AC08930FCC0FC593
:1013DC00236842462B7008A93B463046C84700E0BC
:1013EC0020460FB0BDE8F083100600207C2A0A08C6
:1013FC0010B504460068FFF72BFD204610BD10B554
:10140C000446006808B1FFF723FD00232360A360A6
:10141C00636010BD38B504460D4600680131FFF716
:10142C001FFD10B184E82100012038BD10B5036800
:10143C00044613B143688B4207D22046FFF7EAFFFC
:10144C0020B1A3680BB922681370012010BD70B5D0
:10145C000E46114604461546FFF7E8FF18B920461C
:10146C00FFF7CDFF09E02A463146A560206801F060
:10147C0079F92268A3680021D154204670BD38B593
:10148C000023044603604360836003730D4639B147
:10149C00084601F0CEF9294602462046FFF7D7FF51
:1014AC00204638BD38B505460C4641B1084601F01A
:1014BC00C0F9214602462846FFF7C9FF01E0FFF7B5
:1014CC009EFF284638BDF8B506460D468F180024F9
:1014DC00BD420CD0336815F8011B9B683046984709
:1014EC00002801DB0444F3E7002C08BF0446204627
:1014FC00F8BD70B505460C46084649B101F099F99E
:10150C002B68024621462846BDE87040DB68184728
:10151C0070BD03689B681847012A98BF0A2230B532
:10152C000B468BB000218DF824100DF12304B3FB76
:10153C00F2F505FB1233DBB2092B94BF3033373392
:10154C00DBB2214604F801392B46002DEFD1FFF711
:10155C00D0FF0BB030BD00231A4619464068FFF788
:10156C001FBC38B5046805467CB16368013B6360F9
:10157C005BB9236820469B689847A368013BA3602E
:10158C001BB923682046DB689847284638BD0B6892
:10159C00036013B15A6801325A607047014A024B1A
:1015AC001A607047C1290A088C010020024B1A6886
:1015BC00024B1A60704700BF5800002090010020B9
:1015CC000021FFF7A1BB10B58368044613B10322B9
:1015DC0001469847204610BD10B50446FFF7F3FFAF
:1015EC00204610BD13B50B46044603C88DE8030016
:1015FC0093E8030084E803009DE8030083E80300FC
:10160C0002B010BD034800238360034A034900F075
:10161C002FBF00BF94010020C0000020E5150A0870
:10162C0008B5144B33B100F041FC03681B699847B3
:10163C00002816DC104B33B100F0F6FC03681B6974
:10164C009847002810DC0D4B0BB1AFF300800C4B0E
:10165C007BB100F067FC03681B699847002806DC27
:10166C0008BDAFF30080E5E7AFF30080EBE7AFF325
:10167C00008008BD00000000000000000000000019
:10168C000000000008B5FFF7CBFFFFF71BFA014B7A
:10169C00186008BD280600200248034A0349121AA4
:1016AC0001F060B80040024004400240202C0A08BF
:1016BC0007B5002300931A466FF07701FFF746FB3E
:1016CC0003B05DF804FB000007B543880A2B08D073
:1016DC00502B09D1094B1B683BB103B05DF804EBEF
:1016EC001847FFF7E5FF06E0002300931A466FF05A
:1016FC007701FFF72BFB03B05DF804FBA40100207E
:10170C0038B5104C104D2368AB42104B0CBF012266
:10171C0000221A7002D0FFF7BFFF2560FFF7CAF94D
:10172C00044601F033F80A4B13B12046AFF30080A6
:10173C0000210748FFF77CFBBDE838400021054835
:10174C00FFF7FABA004002401E1C279AA80100209D
:10175C0000000000D5160A0870470020704710B52D
:10176C000446102100F092FE204610BD08B508B1C9
:10177C00FFF7F5FF08BD002202604FF69C728280D5
:10178C0010B5B1F9044084808A8002680C6804604A
:10179C000A6010BD10B504460068FFF759FB2046DF
:1017AC0010BD38B5C468F4B12378022B03D104F111
:1017BC000C00FFF7EFFF656835B12846FFF703FF14
:1017CC001021284600F062FEA56835B12846FFF7C7
:1017DC00FAFE1021284600F059FE2046BDE838409C
:1017EC00142100F053BE38BD13B5044691E8050032
:1017FC0000234B600B602060626001A80193009392
:10180C00FFF7AFFE204602B010BDF7B50C460646FA
:10181C000F4654F8043B02AD45F8083D214601A89B
:10182C00FFF7B5FE29463046FFF7DEFF01A8FFF7AC
:10183C0098FE2046FFF795FE3846082100F026FE5C
:10184C00304603B0F0BD000038B5002304460360F9
:10185C0010200D46FEF71BFC28B10123436083606A
:10186C00024BC56003602060204638BD602A0A0820
:10187C00826810B50AB900F01CFEC368BDE81040C0
:10188C00184708B5006800F11001FFF7F1FF08BD1B
:10189C00826810B50AB900F00CFEC368BDE81040B0
:1018AC00184708B5006800F11001FFF7F1FF08BDFB
:1018BC0038B5002383608B6804460D462BB1022299
:1018CC009847EB68E360AB68A360204638BD000026
:1018DC00F0B589B004686846FFF74DFF4FF002027F
:1018EC0000238DF80830D4E84F3F002B03D1C4E817
:1018FC00412F0029F7D102D08DF8083063E014F1A4
:10190C000C0503D069462846FFF735FFBFF35F8F00
:10191C0001236370BFF35F8F04F10803002053E8C9
:10192C00006F43E80002002AF9D1BFF35F8F002E4D
:10193C0049D0FFF7F1F920B129463046FFF798FF5F
:10194C003AE0314602A8FFF7B3FFE068B4F9105053
:10195C0008B100F053FF06901020ADF81C50FEF7B4
:10196C0096FB0546E8B1002787601820FEF78FFB31
:10197C00044688B10146876002A8FFF733FE049B3A
:10198C00A268A360059B0492E26806A9E36004F1D7
:10199C0010000592FFF7EFFE0D4B2C60EB600D4B2A
:1019AC00AB6006A8FFF7F6FE02A8FFF70CFE0022BC
:1019BC0029460948FFF7B8F93046FFF704FE102115
:1019CC00304600F063FD6846FFF7E4FE09B0F0BD59
:1019DC008F180A08051B0A0881200A082DE9F04F08
:1019EC008BB006460F46904699469DF850A0FFF7DF
:1019FC0007FA07AD834630BB4FF62E73059005A949
:101A0C002846ADF81830FFF7B6FE1420FEF73FFB62
:101A1C00044658B10223037001234370C0F804B08C
:101A2C00C0F808B029460C30FFF7A5FE3046214619
:101A3C0040F8044BFFF708FF2846FFF7ABFE05A85C
:101A4C00FFF7A8FE52E000240C2314206C60AC605D
:101A5C000793FEF71CFB014618B1047044704460F8
:101A6C00846004A80391FFF7EFFE224B0820089333
:101A7C00FEF70DFB044628B1039B04A940F8043B78
:101A8C00FFF785FD00955FFA8AF34A4641463846D2
:101A9C000994FFF7BDF920B9039B5B7803F0FF02B3
:101AAC0083B1039B04A906A80593FFF770FD05A954
:101ABC003046FFF799FE06A8FFF753FD04A8FFF781
:101ACC0050FD13E04FF69C7305A903A80592ADF8E1
:101ADC001830FFF7FDFE05A8FFF75CFE05A8099975
:101AEC00FFF793FE06A8FFF73CFDDAE730460BB094
:101AFC00BDE8F08F751C0A08022AF8B5044606D01A
:101B0C00032A17D0012A22D10B6803601FE018208A
:101B1C000E68FEF7BCFA054650B13146FFF7C8FE19
:101B2C003069B6F9147008B100F068FE2861AF8214
:101B3C0025600CE0046854B104F11000FFF72AFE94
:101B4C002046FFF740FD1821204600F09FFC0020A6
:101B5C00F8BD38B5002383608B6804460D462BB165
:101B6C0002229847EB68E360AB68A360204638BD5F
:101B7C00022A70B5044606D0032A11D0012A18D1C6
:101B8C000B68036015E014200E68FEF780FA05461A
:101B9C0020B13146FFF7DDFF337C2B74256008E064
:101BAC00046834B12046FFF70EFD1421204600F0E6
:101BBC006DFC002070BD0000F0B50C46BFF35F8FCC
:101BCC0087B0002350E8006F40E80032002AF9D1BA
:101BDC00BFF35F8F002E3FD01846FFF79DF80746E6
:101BEC0020B121463046FFF753FE2EE0314601A8C6
:101BFC00FFF7AFFF237810208DF81430FEF747FA6B
:101C0C000546D0B187601420FEF741FA044678B13E
:101C1C008760014601A8FFF7E5FC039BA268A3605F
:101C2C00049B0392E268E3609DF8143004922374E1
:101C3C000A4B2C60EB600A4BAB6001A8FFF7C3FCAE
:101C4C00002229460748FFF76FF83046FFF7BBFC28
:101C5C001021304600F01AFC07B0F0BDAF180A088E
:101C6C007D1B0A0881200A0830B5044685B00D4654
:101C7C0068461146FFF7C9FD7CB124B228460DB168
:101C8C0000F0BCFD029002A96846ADF80C40FFF7CD
:101C9C001FFE02A8FFF77EFD1DE04FF00102009829
:101CAC008DF80840D0E84F3FA34203D1C0E8412F44
:101CBC000029F7D102D08DF808300CE010F10C019E
:101CCC004FF0010318BF0373BFF35F8F043000F8AC
:101CDC00033CFFF771FF01A8FFF743FC05B030BDD3
:101CEC00704710B50446182100F0D0FB204610BDFB
:101CFC00F8B50F4600F10806051D002416F8011D65
:101D0C000A223846FFF708FCAE42044407D0002CE8
:101D1C00F4D02E213846FFF7FCFB0444EEE72046B6
:101D2C00F8BD000010B50446044B112240F8043BEA
:101D3C00002100F022FD204610BD00BF7C2A0A08BD
:101D4C000346074A10B543F8042B01F1100251F871
:101D5C00044B914243F8044BF9D10A781A7010BD28
:101D6C007C2A0A08024A416002600422027570470C
:101D7C007C2A0A0810B59DF8084044EA032343EA7C
:101D8C00024242EA016104234160037510BD000068
:101D9C0037B5044D05609DF818500095FFF7EAFF24
:101DAC0003B030BD7C2A0A0837B50D788B784A7899
:101DBC00C97800912946FFF7DDFF03B030BD000064
:101DCC0010B50446024B0360FFF7EEFF204610BD32
:101DDC007C2A0A0841747047704708B50021007CC2
:101DEC00FEF75AFF30EA200028BF4FF0FF3008BD45
:101DFC0008B50121007CFEF74FFF30EA200028BF18
:101E0C004FF0FF3008BD08B5007CFEF73DFF20EA1F
:101E1C00E07008BD08B5007CFEF72EFF20EAE070EC
:101E2C0008BD007CFEF748BF10B50446142100F035
:101E3C002DFB204610BD38B50446007C0D46FEF740
:101E4C0023FF002801DC607C28B12946207CFEF7AA
:101E5C002BFF20EAE07038BD10B504460023636008
:101E6C004FF47A73A360054B084623600123217459
:101E7C0063741146FEF7F8FE204610BD902A0A083E
:101E8C0010B504461422002100F077FC054B2046C7
:101E9C006360054BE36040F20113238181232382AD
:101EAC0010BD00BF31020020B001002030B50E4D36
:101EBC0087B001A8FFF7E4FF296811F0010410D1E5
:101ECC002846FEF7ECF860B101AA21460748FFF757
:101EDC00C3FF2846FEF7E8F8054A0649034800F018
:101EEC00C7FA024807B030BDAC0100203403002013
:101EFC00C0000020E51D0A0810B50446142200217C
:101F0C0000F03BFC054B20466360054BE36040F260
:101F1C00011323818123238210BD00BFE403002021
:101F2C004C03002010B50E4C86B001A8FFF7E4FF5F
:101F3C002368DB0710D42046FEF7B1F860B101AA84
:101F4C0001210848FFF788FF2046FEF7ADF8064A46
:101F5C000649044800F08CFA024806B010BD00BFD8
:101F6C0048030020D0030020C0000020E51D0A0813
:101F7C0070474174704708B5007CFEF7F3FD20EA0A
:101F8C00E07008BD08B5007CFEF7C4FD20EAE070E7
:101F9C0008BD08B5007CFEF7CDFD30EA200028BF57
:101FAC004FF0FF3008BD08B5007CFEF7BBFD30EAF2
:101FBC00200028BF4FF0FF3008BD007CFEF7C2BDEB
:101FCC0010B50446142100F061FA204610BD70B51E
:101FDC00457C04460E4625B9007CFEF7C3FD00285F
:101FEC0005DD3146207CBDE87040FEF78BBD2846F0
:101FFC0070BD000010B50446084611460022626010
:10200C004FF47A72A260054A207422600122627435
:10201C001A46FEF76FFD204610BD00BFC02A0A0805
:10202C00007CFEF797BD000038B50C4D296811F007
:10203C00010411D12846FEF732F868B1084A21464E
:10204C00084B0948FFF7D6FF2846FEF72DF8074A3C
:10205C000749054800F00CFA034838BD80050020FC
:10206C0084050020FC040020E8040020C0000020AF
:10207C007D1F0A0810B5836804460BB900F019FAE5
:10208C00C3689847A3681BB1032221462046984792
:10209C002046BDE81040102100F0F8B97047F8B5A3
:1020AC00064615460C468F18BC4206D0336814F809
:1020BC00011B9B6830469847F6E72846F8BD00227E
:1020CC00007CFEF757BD0021007CFEF75BBD0021B4
:1020DC00007CFEF75FBD0021007CFEF763BD002194
:1020EC00007CFEF767BD10B50446142100F0CEF954
:1020FC00204610BD10B50446002363604FF47A737C
:10210C00A360044B2174084623601146FEF762FD60
:10211C00204610BDF02A0A080021007CFEF752BDB3
:10212C00002211464068FEF733BEF0B5164689B062
:10213C0011220F460446002103A800F01EFB304676
:10214C0000F077FB0025009581B27B6803AA30462E
:10215C00FEF7C2FD20B129462046FFF703FE03E03F
:10216C0003A92046FFF7ECFD204609B0F0BD002284
:10217C0011464068FEF72CBE002211464068FEF75F
:10218C0037BE00224068FEF72BBE002281F0010111
:10219C004068FEF715BE00231A4619464068FEF744
:1021AC0007BE002211464068FEF7E2BD0022022164
:1021BC004068FEF7E5BD00231A464068FEF7D0BD27
:1021CC00024B04225A60024A1A607047080600202B
:1021DC00182B0A0800231A464068FEF7C1BD0022DE
:1021EC0002214068FEF7CCBD002211464068FEF784
:1021FC00BFBD002211464068FEF7CABD00231A4637
:10220C0019464068FEF7CCBD00231A4619464068B3
:10221C00FEF7CEBD002281F001014068FEF7D0BD73
:10222C0000224068FEF7DCBD002211464068FEF734
:10223C00DFBD002211464068FEF7CABD70B51646D8
:10224C008EB0044608A8FFF76DFD1122002103A8EB
:10225C0000F093FA304600F0ECFA00250A4B00959A
:10226C0081B25B6803AA3046FEF736FD20B12946E1
:10227C002046FFF777FD03E003A92046FFF760FD3A
:10228C0020460EB070BD00BF08060020034B044A68
:10229C0004280CBF10461846704700BF10060020DB
:1022AC0008060020024B034A1A6000225A6070474D
:1022BC00100600204C2B0A0810B50446806808B1A3
:1022CC00FEF710FC204610BD70B51A4E044631685E
:1022DC0011F001050FD13046FDF7E1FE58B129464A
:1022EC001548FEF7D5FD3046FDF7DEFE134A1449BE
:1022FC00114800F0BDF81048FEF7D9FD28B1A4F143
:10230C000D03022B01D8002070BD00F08BF8FFF7F5
:10231C0003FF08B1012CF6D9FFF786FEFFF780FE0C
:10232C0018B1A4F11203012BEDD9172C8CBF00208E
:10233C00012070BD180600201C060020C0000020E3
:10234C00C5220A08172838B504460D460AD8FF29B5
:10235C0008D0FFF7B9FF28B129462046BDE8384020
:10236C00FEF778BB38BD38B504460D46FEF77AFB50
:10237C00FF2810D0062804D84D2323FA00F0C307F9
:10238C0009D42046FFF7A0FF28B129462046BDE816
:10239C003840FEF76FBB38BD10B50446FEF762FB44
:1023AC000438C0B2012808D92046FFF78DFF20B1B0
:1023BC002046BDE81040FEF765BB002010BD0000B4
:1023CC0013B5084C00231A46194600932046FFF714
:1023DC00DFFC2046044A054902B0BDE8104000F07D
:1023EC0047B800BF2C060020C0000020ED1C0A08D6
:1023FC0070B5044614252A46094E002100F0BDF99B
:10240C00258020253146A5602561284600F040F83E
:10241C0031466060284600F03BF8E060204670BD15
:10242C00782B0A0830B50E4D87B0296811F00104DD
:10243C0013D12846FDF733FE78B101A8FFF7D8FF7A
:10244C0001AA21460748FFF755FE2846FDF72CFE4A
:10245C00054A0649034800F00BF8024807B030BDA6
:10246C004406002048060020C0000020A9200A08CD
:10247C000B460146184600F067B90000024B18687D
:10248C00BFF35F8F704700BF5C060020FDF703BEF3
:10249C0000F000B810B5002814BF044601242046F3
:1024AC00FEF7CEFC20B9FFF7E9FF08B18047F6E74D
:1024BC0010BD08B5FEF7DCFC184B1A68D1075CBFE1
:1024CC0001221A60164B1A68D2075CBF01221A60EF
:1024DC00144B1A68D0075CBF01221A60124B1A68A1
:1024EC00D1075CBF01221A60104B1A68D2075CBF7F
:1024FC0001221A600E4B1A68D0075CBF01221A60C9
:10250C000C4B1A68D1075CBF01221A600A4B1A687F
:10251C00D2075CBF01221A60704700BF7C06002006
:10252C007806002074060020700600206C0600203F
:10253C00680600206406002060060020244B1A6800
:10254C00D0075CBF01221A60224B1A68D1075CBF0E
:10255C0001221A60204B1A68D2075CBF01221A6054
:10256C001E4B1A68D0075CBF01221A601C4B1A68FC
:10257C00D1075CBF01221A601A4B1A68D2075CBFE4
:10258C0001221A60184B1A68D0075CBF01221A602E
:10259C00164B1A68D1075CBF01221A60144B1A68DB
:1025AC00D2075CBF01221A60124B1A68D0075CBFBD
:1025BC0001221A60104B1A68D1075CBF01221A6005
:1025CC000E4B1A68D2075CBF01221A60704700BF1D
:1025DC00AC060020A8060020A4060020A0060020BF
:1025EC009C060020980600209406002090060020EF
:1025FC008C0600208806002084060020800600201F
:10260C00244B1A68D0075CBF01221A60224B1A684F
:10261C00D1075CBF01221A60204B1A68D2075CBF3D
:10262C0001221A601E4B1A68D0075CBF01221A6087
:10263C001C4B1A68D1075CBF01221A601A4B1A682E
:10264C00D2075CBF01221A60184B1A68D0075CBF16
:10265C0001221A60164B1A68D1075CBF01221A605E
:10266C00144B1A68D2075CBF01221A60124B1A680D
:10267C00D0075CBF01221A60104B1A68D1075CBFEF
:10268C0001221A600E4B1A68D2075CBF01221A6035
:10269C00704700BFDC060020D8060020D4060020BE
:1026AC00D0060020CC060020C8060020C40600205E
:1026BC00C0060020BC060020B8060020B40600208E
:1026CC00B0060020184B1A68D1075CBF01221A60B3
:1026DC00164B1A68D2075CBF01221A60144B1A6899
:1026EC00D0075CBF01221A60124B1A68D1075CBF7D
:1026FC0001221A60104B1A68D2075CBF01221A60C3
:10270C000E4B1A68D0075CBF01221A600C4B1A687A
:10271C00D1075CBF01221A600A4B1A68D2075CBF52
:10272C0001221A60704700BFFC060020F80600204A
:10273C00F4060020F0060020EC060020E80600203D
:10274C00E4060020E006002010B5054C13462CB121
:10275C000A4601460220AFF3008010BD204610BD92
:10276C000000000010B5431E0A44914204D011F839
:10277C00014B03F8014FF8E710BD034602449342A6
:10278C0002D003F8011BFAE77047000038B5124B72
:10279C0005461C68A36BD3B91820FEF751FB43F216
:1027AC000E33A06303804AF6CD33438041F23423C9
:1027BC0083804EF26D63C3804DF6EC630381052379
:1027CC0043810B23838101220023C0E90423A36BE3
:1027DC0000221D615A6138BDBC000020024610B5B4
:1027EC0013461C780132002CFAD1013B11F8012B55
:1027FC0003F8012F002AF9D110BD0000024B01464D
:10280C00186800F003B800BFBC00002070B5064685
:10281C0008460C4600F00DF8451C29463046FEF7DC
:10282C002FFB064618B12A462146FFF79BFF304680
:10283C0070BD034613F8012B002AFBD1181A01387E
:10284C007047034610B542B111F8014B013A03F839
:10285C00014B002CF7D11A4400E010BD934202D07A
:10286C0003F8014BFAE710BD1D000A085D000A08C9
:10287C0089000A088D000A0800000000706172745B
:10288C0069636C652F6465766963652F6E616D6530
:10289C00004D7950686F746F6E003230372E3235C0
:1028AC00332E3138352E35350000044D5154540437
:1028BC0000064D51497364700300000000000000D5
:1028CC0000000000590F0A085F0F0A0877130A0866
:1028DC006D0F0A085B0F0A080000000000000000E2
:1028EC0065020A0899020A08150F0A082F0F0A0830
:1028FC0075100A08DF0F0A08B10F0A08570F0A08EB
:10290C0021110A0891130A0813100A08ED100A087D
:10291C006F120A08C1120A083F0F0A0833120A087C
:10292C00910F0A08776972696E6700544350436CC3
:10293C0069656E7420736F636B65743D25780062F6
:10294C006175640053657269616C0055534253653F
:10295C007269616C31007479706500706172616DBF
:10296C0000636D6400696400686E64007374726D5A
:10297C000066696C74006C766C0061646448616E0E
:10298C00646C65720072656D6F766548616E646C1F
:10299C00657200656E756D48616E646C657273006E
:1029AC004A534F4E53747265616D4C6F6748616E3C
:1029BC00646C6572006170700025303130752000D8
:1029CC005D20002564002C200028293A2000205B83
:1029DC0000636F6465203D200025690064657461A7
:1029EC00696C73203D20000D0A0066006C6E006659
:1029FC006E00636F64650064657461696C006E6F72
:102A0C006E6500747261636500696E666F00776154
:102A1C00726E006572726F720070616E6963006134
:102A2C006C6C005A00252B3033643A25303275001B
:102A3C0025592D256D2D25645425483A254D3A25CB
:102A4C0053257A0061736374696D650000000000A2
:102A5C000000000065170A086B170A08AF170A0870
:102A6C0079170A0867170A08000000000000000028
:102A7C00FD1C0A08ED1C0A08EF1C0A0800000000E7
:102A8C0000000000E51D0A08351E0A08431E0A084E
:102A9C00D3140A08211E0A08E71D0A08FD1D0A089E
:102AAC002F1E0A08131E0A08E11D0A080000000068
:102ABC00000000007D1F0A08CD1F0A08DB1F0A0852
:102ACC00D3140A08911F0A08B31F0A089F1F0A088B
:102ADC00C71F0A087F1F0A08831F0A08000000008E
:102AEC0000000000A9200A08F3200A08CB200A08DD
:102AFC00AB200A08D3200A08DB200A08E3200A08C6
:102B0C00EB200A080000000000000000C3210A08A6
:102B1C00B9210A08AF210A082D210A0863150A08F1
:102B2C00A3210A0897210A088F210A0885210A087F
:102B3C007B210A0837210A08000000000000000071
:102B4C00E1210A08EB210A08F5210A08FF210A08ED
:102B5C0009220A0815220A0821220A082D220A082D
:102B6C0035220A083F220A0849220A080000000000
:102B7C000000000000000000000000000000000049
:102B8C000000000000000000000000000000000039
:102B9C000000000000000000000000000000000029
:102BAC000000000000000000000000000000000019
:102BBC000000000000000000000000000000000009
:102BCC0000000000000000000000000000000000F9
:102BDC004300000021020A084B0A0A08E10E0A0809
:102BEC00A9150A08B9150A0811160A08CD210A08F0
:102BFC00B1220A08CD230A08C5240A0849250A0867
:102C0C000D260A08D1260A0800000000000000006A
:042C1C0000000000B4
:042C200000000000B0
:102C240048656C6C6F20212000000000000000004B
:102C34000000000000000000000000000000000090
:102C44000000000000000000000000000000000080
:102C540000000000FFFFFFFF070000004D657263E6
:102C6400617074616E2F000000000000000000001D
:102C7400FFFFFFFF0E000000502A0A0800000000BA
:102C84007C2B0A089C2B0A08BC2B0A0800000000B5
:102C9400000000000000000000000000DC2B0A0817
:102CA4000000000000000000000000000000000020
:102CB4000000000000000000000000000000000010
:102CC4000000000000000000000000000000000000
:102CD4000000000000000000000000005C00002074
:102CE400FFFFFFFF00000102030405060708090AAD
:102CF4000B0C0D0E0F101112131415161718191AA8
:082D04001B1C1D1E1F202800EE
:042D0C0078563412AF
:04000005080A001CC9
:00000001FF
